:020000020000FC
:020000004CC3EF
:0200040018954D
:02000800189549
:02000C00189545
:02001000189541
:0200140018953D
:02001800189539
:02001C00189535
:02002000189531
:0200240016C301
:02002800189529
:02002C00189525
:060030000C94FE0118957E
:02003800189519
:02003C00BCC244
:02004000189511
:0200440018950D
:02004800189509
:02004C00189505
:02005000189501
:020054001895FD
:020058001895F9
:02005C001895F5
:020060001895F1
:020064001895ED
:02006800A0C234
:02006C001895E5
:020070001895E1
:020074001895DD
:10008C003090008037FCFCCF03D0009300800895A3
:10009C0000D0000008952D3069F12A30A9F10091AB
:1000AC00008007FDFCCFF4DF209300C0089501E031
:1000BC00E7CF02E0E5CF00E1E3CF04E1E1CF08E1D7
:1000CC00DFCF0CE1DDCF0DE0DBCF0CE0D9CF0EE0C4
:1000DC00D7CF0CE0D5CF05B7006C05BF01E0D0DF62
:1000EC0006E0CEDF0CE0CCDF08E3CADF0895022F78
:1000FC000068C6CF0091008007FDFCCF007400683B
:10010C00C7DF0093008008952F9320E4F0DF2F9138
:10011C000895FF91EF91EE0FFF1FAF93BF93C8951A
:10012C003196002021F04AF0002D13D0F8CF3196F3
:10013C00F695E795BF91AF91099400FA002DC895FB
:10014C00A02DBB273196043879F0053881F015C005
:10015C00E6CF2F93FF93EF93E42DF52D202F0995E8
:10016C00EF91FF912F9108950C91F3DFD8CF0D9162
:10017C00002309F4D4CFEDDFFACF5F934F933F9375
:10018C002F939F938F937F936F932D913D914D91CF
:10019C005D9106FD06C005FD0FC004FD10C003FDFA
:1001AC0019C06AE0702F76957770729580E0902F69
:1001BC009295937093951AC062E094E003C060E14D
:1001CC0094E000C0702F7695777009F478E0729502
:1001DC0080E00CC06AE0C895802D3196C895702DD2
:1001EC003196902F95959370939500C0943081F033
:1001FC00933051F0923021F0332716F427FD3FEF66
:10020C00442716F437FD4FEF552716F447FD5FEFE3
:10021C0009D06F917F918F919F912F913F914F9129
:10022C005F917DCFCF92BF92AF929F928F92BB186E
:10023C00AA249924882486F4E89455236AF46894B3
:10024C00772309F0705150954095309520950FEF1C
:10025C00201B300B400B500B882351F055954795C4
:10026C0037952795B794A794979487948A95B1F767
:10027C007F9372957F700EE20F9345D00C2D30D08A
:10028C000F930027201730074007500729F07723DA
:10029C00A1F37A9591F707C0772329F07A9519F095
:1002AC0000E257DFF9CF16F40DE253DF0F910E3257
:1002BC0011F04FDFFBCF7F917F70772359F049DF2F
:1002CC00282D392D4A2D5B2D11D00C2D09D041DF55
:1002DC007A95D1F78F909F90AF90BF90CF90089563
:1002EC000A3010F4005D0895095A0895CC2400E2F8
:1002FC00889420FDC60EC79457954795379527953A
:10030C000A95B1F70895CC2400E2221F331F441F35
:10031C00551FCC1CC61A08F4C60E0A95B1F7221F3D
:10032C00331F441F551F50954095309520950895C7
:10033C000A9500000000000000000000C9F70895B5
:10034C0095988D9808958D9A0FEFF2DF8D9803E2B2
:10035C00EFDF00B305FB0DECEBDF08958D9A0CE19C
:10036C00E7DF8D9802E0E4DF00B305FB01E0E0DF9E
:10037C0008958D9A01E0DCDF8D980EE1D9DF00B392
:10038C0005FB01E0D5DF08958D9A01E0D1DF8D9852
:10039C0007E0CEDF00B305FB07E1CADF08953F930A
:1003AC0038E0279510F4E5DF01C0D8DF3A95C9F79E
:1003BC003F9108953F9338E02795E6DF27F93A956A
:1003CC00D9F73F91089509E148E0279508F43027C3
:1003DC0030FB379537F94A95C1F708950DE00EBDFE
:1003EC0000E10BBD00E00ABD07B7006107BF08952F
:1003FC000F93009100010395009300010F91189544
:10040C0020E075DE01E5402E00E0502E82DE6C6FA0
:10041C006164696E672E2E2E0000089570910201A2
:10042C006091030120E00E947D0001E5402E00E078
:10043C00502E6FDE41637475656C6C653A208A16BC
:10044C00042220000000089520E40E947D0001E5B4
:10045C00402E00E0502E5DDE0A436F6E7369676EAE
:10046C00653A2088150222200000089502B10F7809
:10047C0002B903B1006703B950E50895E89401B1DE
:10048C00007730900101031509F4089500930101E0
:10049C00302634FE0895689404FD03C005FF08C09F
:1004AC0002C005FD05C05395593708F058E708956B
:1004BC005A955C3308F45CE3089545DF2CEC6FDF50
:1004CC0024E46DDF08953FDF2CEC69DF2EEB67DF52
:1004DC0071DF209303016EDF209302010895000069
:1004EC00EE2B77292327F124DE22E920101F521D41
:1004FC00AC1B1F1AA8184517F715BB1491137812CB
:10050C006F117410880FA90ED60D0F0D540CA20B81
:10051C00FB0A5D0AC8093C09B7083A08C407262B30
:10052C00EBEE2D4B32706D2BEBEE2D4A2C66000052
:10053C00676EECEBE9732EEEECEBE9732EEEECEB65
:10054C00EC6920E000009000129A08E000BF0EE079
:10055C0003BF00E00093050100E00093040108953F
:10056C0001E001BF00E002BF00E00093890000E061
:10057C000093880008E000938A0007B7026007BF69
:10058C0000917D00006100937D00089507B70D7FF9
:10059C0007BF00917D000F7E00937D0008951A9B8C
:1005AC0002C01A9801C01A9A18951FB60F920F9391
:1005BC00EF93FF93E0910401F0910501C8950020A1
:1005CC0071F13196E0930401F0930501002D007E4A
:1005DC00003E09F400E1003A09F408E001BF002DE7
:1005EC000F71000FE02FFF27E651FB4FC895002D30
:1005FC003196C895002079F0002369F000928700AD
:10060C000093860009E000938A00FF91EF910F910F
:10061C000F901FBE189508E000938A00F6CF07B71D
:10062C000D7F07BF00917D000F7E00937D00EDCF05
:10063C0007B3006207BBC5980DE005BD1AD007B71C
:10064C00006807BF08951FB60F931F9303B5109151
:10065C000601011729F4C5980091070103BD05C0D7
:10066C00C59A0091060103BD00C01F910F911FBEDA
:10067C00189503E0009306010CE40093070108951C
:10068C0007E00093060108E40093070108950FEFBB
:10069C000DBF00E10EBFF89400E007BF9FDE54DFF2
:1006AC00E5DEC6DF18DD4CDE00E000930801A8DEB5
:1006BC0004DF08EE302E04E00F933F9200E3302E5F
:1006CC0006E03A94F1F73A940A95D9F73F900F91D6
:1006DC003A9491F70A9581F7F6DEA0DEB5DE7894B0
:1006EC000C94780301E0302E01E00F933F9200E36D
:1006FC00302E06E03A94F1F73A940A95D9F73F90E8
:10070C000F913A9491F70A9581F70E9444022EF4C6
:10071C0000E0009308010E942A02009100010130C0
:10072C0019F40E946302DECF009100010230D1F671
:10073C0000E0009300010E9469020E9414022091C3
:10074C00030130910201652F70E0660F771F660F71
:10075C00771F862F972F885F9F4F2817390724F014
:10076C0019F00E943F030FC0862F972F885090409E
:10077C00281739071CF40E94460305C001E00093BA
:10078C0008010C94780300910801002311F40C94D7
:10079C007803862F972F805F9F4F281739078CF08F
:1007AC0081F000917D0004FD07C005E00093050178
:1007BC000CE300930401D4DE00E0009308010C94D8
:1007CC007803862F972F805190402817390784F48F
:1007DC0000917D0004FD07C005E0009305010AE2CD
:1007EC0000930401BDDE00E0009308010C94780333
:0407FC000C947803DE
:00000001FF
